{
  "_format": "hh-sol-artifact-1",
  "contractName": "Bucket",
  "sourceName": "contracts/Bucket.sol",
  "abi": [
    {
      "anonymous": false,
      "inputs": [
        {
          "indexed": false,
          "internalType": "address",
          "name": "",
          "type": "address"
        }
      ],
      "name": "Winner",
      "type": "event"
    },
    {
      "inputs": [
        {
          "internalType": "address",
          "name": "erc20",
          "type": "address"
        },
        {
          "internalType": "uint256",
          "name": "amount",
          "type": "uint256"
        }
      ],
      "name": "drop",
      "outputs": [],
      "stateMutability": "nonpayable",
      "type": "function"
    }
  ],
  "bytecode": "0x6080604052348015600f57600080fd5b506103b48061001f6000396000f3fe608060405234801561001057600080fd5b506004361061002b5760003560e01c80638d0f8cef14610030575b600080fd5b61004a600480360381019061004591906101ec565b61004c565b005b6000811161008f576040517f08c379a000000000000000000000000000000000000000000000000000000000815260040161008690610289565b60405180910390fd5b8173ffffffffffffffffffffffffffffffffffffffff166323b872dd3330846040518463ffffffff1660e01b81526004016100cc939291906102c7565b6020604051808303816000875af11580156100eb573d6000803e3d6000fd5b505050506040513d601f19601f8201168201806040525081019061010f9190610336565b61011857600080fd5b7f745c90b656b4aafe296c8ca35aeacfe56cb96c90e1d320e5da643fff1051b6c0336040516101479190610363565b60405180910390a15050565b600080fd5b600073ffffffffffffffffffffffffffffffffffffffff82169050919050565b600061018382610158565b9050919050565b61019381610178565b811461019e57600080fd5b50565b6000813590506101b08161018a565b92915050565b6000819050919050565b6101c9816101b6565b81146101d457600080fd5b50565b6000813590506101e6816101c0565b92915050565b6000806040838503121561020357610202610153565b5b6000610211858286016101a1565b9250506020610222858286016101d7565b9150509250929050565b600082825260208201905092915050565b7f416d6f756e74206d7573742062652067726561746572207468616e2030000000600082015250565b6000610273601d8361022c565b915061027e8261023d565b602082019050919050565b600060208201905081810360008301526102a281610266565b9050919050565b6102b281610178565b82525050565b6102c1816101b6565b82525050565b60006060820190506102dc60008301866102a9565b6102e960208301856102a9565b6102f660408301846102b8565b949350505050565b60008115159050919050565b610313816102fe565b811461031e57600080fd5b50565b6000815190506103308161030a565b92915050565b60006020828403121561034c5761034b610153565b5b600061035a84828501610321565b91505092915050565b600060208201905061037860008301846102a9565b9291505056fea2646970667358221220cf537dc1acab9e89c4a2be2c5697eaa21e296f28a3ad742be261771a40debfe064736f6c634300081b0033",
  "linkReferences": {},
  "deployedLinkReferences": {}
}